:03000000020016E5
:0C001600787FE4F6D8FD75810902005DDA
:04011C0002080000D5
:0B000600EF1FAC0670011E4C70F622CC
:030003000200A256
:1000A200C0E0C0D075D000C004C006C0070509E595
:1000B2000970020508C2907F307E75120006D29048
:0B00C200D007D006D004D0D0D0E03230
:030013000200CD1B
:1000CD00C0E0C0D075D000C004C006C007E509155A
:1000DD000970021508C2917F307E75120006D2910B
:0B00ED00D007D006D004D0D0D0E03205
:1000F800D2A8D2AAD288D28AD2AFE509450870021E
:10010800F5A0D3E5099400E5086480948040EB7578
:04011800A0FF80E6DE
:100022000200F8E493A3F8E493A34003F68001F2FC
:1000320008DFF48029E493A3F85407240CC8C333DF
:10004200C4540F4420C8834004F456800146F6DFAE
:10005200E4800B010204081020408090011CE47E21
:10006200019360BCA3FF543F30E509541FFEE493A3
:10007200A360010ECF54C025E060A840B8E493A36A
:10008200FAE493A3F8E493A3C8C582C8CAC583CA95
:10009200F0A3C8C582C8CAC583CADFE9DEE780BE4D
:0101200000DE
:00000001FF
